{
  "contractName": "BasedWhales",
  "abi": [
    {
      "inputs": [],
      "stateMutability": "nonpayable",
      "type": "constructor"
    },
    {
      "anonymous": false,
      "inputs": [
        {
          "indexed": true,
          "internalType": "address",
          "name": "owner",
          "type": "address"
        },
        {
          "indexed": true,
          "internalType": "address",
          "name": "spender",
          "type": "address"
        },
        {
          "indexed": false,
          "internalType": "uint256",
          "name": "value",
          "type": "uint256"
        }
      ],
      "name": "Approval",
      "type": "event"
    },
    {
      "anonymous": false,
      "inputs": [
        {
          "indexed": true,
          "internalType": "address",
          "name": "previousOwner",
          "type": "address"
        },
        {
          "indexed": true,
          "internalType": "address",
          "name": "newOwner",
          "type": "address"
        }
      ],
      "name": "OwnershipTransferred",
      "type": "event"
    },
    {
      "anonymous": false,
      "inputs": [
        {
          "indexed": true,
          "internalType": "address",
          "name": "from",
          "type": "address"
        },
        {
          "indexed": true,
          "internalType": "address",
          "name": "to",
          "type": "address"
        },
        {
          "indexed": false,
          "internalType": "uint256",
          "name": "value",
          "type": "uint256"
        }
      ],
      "name": "Transfer",
      "type": "event"
    },
    {
      "inputs": [
        {
          "internalType": "address",
          "name": "owner",
          "type": "address"
        },
        {
          "internalType": "address",
          "name": "spender",
          "type": "address"
        }
      ],
      "name": "allowance",
      "outputs": [
        {
          "internalType": "uint256",
          "name": "",
          "type": "uint256"
        }
      ],
      "stateMutability": "view",
      "type": "function",
      "constant": true
    },
    {
      "inputs": [
        {
          "internalType": "address",
          "name": "spender",
          "type": "address"
        },
        {
          "internalType": "uint256",
          "name": "amount",
          "type": "uint256"
        }
      ],
      "name": "approve",
      "outputs": [
        {
          "internalType": "bool",
          "name": "",
          "type": "bool"
        }
      ],
      "stateMutability": "nonpayable",
      "type": "function"
    },
    {
      "inputs": [
        {
          "internalType": "address",
          "name": "account",
          "type": "address"
        }
      ],
      "name": "balanceOf",
      "outputs": [
        {
          "internalType": "uint256",
          "name": "",
          "type": "uint256"
        }
      ],
      "stateMutability": "view",
      "type": "function",
      "constant": true
    },
    {
      "inputs": [],
      "name": "decimals",
      "outputs": [
        {
          "internalType": "uint8",
          "name": "",
          "type": "uint8"
        }
      ],
      "stateMutability": "view",
      "type": "function",
      "constant": true
    },
    {
      "inputs": [
        {
          "internalType": "address",
          "name": "spender",
          "type": "address"
        },
        {
          "internalType": "uint256",
          "name": "subtractedValue",
          "type": "uint256"
        }
      ],
      "name": "decreaseAllowance",
      "outputs": [
        {
          "internalType": "bool",
          "name": "",
          "type": "bool"
        }
      ],
      "stateMutability": "nonpayable",
      "type": "function"
    },
    {
      "inputs": [
        {
          "internalType": "address",
          "name": "spender",
          "type": "address"
        },
        {
          "internalType": "uint256",
          "name": "addedValue",
          "type": "uint256"
        }
      ],
      "name": "increaseAllowance",
      "outputs": [
        {
          "internalType": "bool",
          "name": "",
          "type": "bool"
        }
      ],
      "stateMutability": "nonpayable",
      "type": "function"
    },
    {
      "inputs": [
        {
          "internalType": "address",
          "name": "",
          "type": "address"
        }
      ],
      "name": "isBot",
      "outputs": [
        {
          "internalType": "bool",
          "name": "",
          "type": "bool"
        }
      ],
      "stateMutability": "view",
      "type": "function",
      "constant": true
    },
    {
      "inputs": [
        {
          "internalType": "address",
          "name": "",
          "type": "address"
        }
      ],
      "name": "isExcludedFromLimits",
      "outputs": [
        {
          "internalType": "bool",
          "name": "",
          "type": "bool"
        }
      ],
      "stateMutability": "view",
      "type": "function",
      "constant": true
    },
    {
      "inputs": [],
      "name": "name",
      "outputs": [
        {
          "internalType": "string",
          "name": "",
          "type": "string"
        }
      ],
      "stateMutability": "view",
      "type": "function",
      "constant": true
    },
    {
      "inputs": [],
      "name": "owner",
      "outputs": [
        {
          "internalType": "address",
          "name": "",
          "type": "address"
        }
      ],
      "stateMutability": "view",
      "type": "function",
      "constant": true
    },
    {
      "inputs": [],
      "name": "renounceOwnership",
      "outputs": [],
      "stateMutability": "nonpayable",
      "type": "function"
    },
    {
      "inputs": [],
      "name": "symbol",
      "outputs": [
        {
          "internalType": "string",
          "name": "",
          "type": "string"
        }
      ],
      "stateMutability": "view",
      "type": "function",
      "constant": true
    },
    {
      "inputs": [],
      "name": "totalSupply",
      "outputs": [
        {
          "internalType": "uint256",
          "name": "",
          "type": "uint256"
        }
      ],
      "stateMutability": "view",
      "type": "function",
      "constant": true
    },
    {
      "inputs": [
        {
          "internalType": "address",
          "name": "to",
          "type": "address"
        },
        {
          "internalType": "uint256",
          "name": "amount",
          "type": "uint256"
        }
      ],
      "name": "transfer",
      "outputs": [
        {
          "internalType": "bool",
          "name": "",
          "type": "bool"
        }
      ],
      "stateMutability": "nonpayable",
      "type": "function"
    },
    {
      "inputs": [
        {
          "internalType": "address",
          "name": "from",
          "type": "address"
        },
        {
          "internalType": "address",
          "name": "to",
          "type": "address"
        },
        {
          "internalType": "uint256",
          "name": "amount",
          "type": "uint256"
        }
      ],
      "name": "transferFrom",
      "outputs": [
        {
          "internalType": "bool",
          "name": "",
          "type": "bool"
        }
      ],
      "stateMutability": "nonpayable",
      "type": "function"
    },
    {
      "inputs": [
        {
          "internalType": "address",
          "name": "newOwner",
          "type": "address"
        }
      ],
      "name": "transferOwnership",
      "outputs": [],
      "stateMutability": "nonpayable",
      "type": "function"
    },
    {
      "inputs": [],
      "name": "launch",
      "outputs": [],
      "stateMutability": "nonpayable",
      "type": "function"
    },
    {
      "inputs": [
        {
          "internalType": "bool",
          "name": "_status",
          "type": "bool"
        }
      ],
      "name": "enableLimits",
      "outputs": [],
      "stateMutability": "nonpayable",
      "type": "function"
    },
    {
      "inputs": [
        {
          "internalType": "uint256",
          "name": "_limit",
          "type": "uint256"
        }
      ],
      "name": "setLimit",
      "outputs": [],
      "stateMutability": "nonpayable",
      "type": "function"
    },
    {
      "inputs": [
        {
          "internalType": "uint256",
          "name": "amount",
          "type": "uint256"
        }
      ],
      "name": "burn",
      "outputs": [],
      "stateMutability": "nonpayable",
      "type": "function"
    },
    {
      "inputs": [
        {
          "internalType": "address[]",
          "name": "wallets",
          "type": "address[]"
        },
        {
          "internalType": "bool",
          "name": "value",
          "type": "bool"
        }
      ],
      "name": "excludeFromLimits",
      "outputs": [],
      "stateMutability": "nonpayable",
      "type": "function"
    },
    {
      "inputs": [
        {
          "internalType": "address[]",
          "name": "accounts",
          "type": "address[]"
        },
        {
          "internalType": "bool",
          "name": "value",
          "type": "bool"
        }
      ],
      "name": "setBots",
      "outputs": [],
      "stateMutability": "nonpayable",
      "type": "function"
    }
  ],
  "bytecode": "0x60806040526006805461ffff19166101001790556b168532bdc48cb0ddb58400006009553480156200003057600080fd5b506040518060400160405280600b81526020016a42617365645768616c657360a81b815250604051806040016040528060058152602001645748414c4560d81b8152506200008d620000876200017060201b60201c565b62000174565b60046200009b8382620004de565b506005620000aa8282620004de565b5050336000818152600860205260408082208054600160ff19918216811790925530845291832080548316821790557fa259d16c18ce8298fd202da0c47d787b63db9393266b3ae5dd26a41c53e236028054831682179055733fc91a3afd70395cd496c647d5a6cc9d4b2b7fad9092527fa5c15fcfc511e31f008250e4383e43149f005ad3c77db5b55e613c754f80f5a2805490911690911790556200015f91506c08cc07d2248486550705840000620001c4565b6006805461ff0019169055620005d2565b3390565b600080546001600160a01b038381166001600160a01b0319831681178455604051919092169283917f8be0079c531659141344cd1fd0a4f28419497f9722a3daafe3b4186f6b6457e09190a35050565b6001600160a01b038216620002205760405162461bcd60e51b815260206004820152601f60248201527f45524332303a206d696e7420746f20746865207a65726f20616464726573730060448201526064015b60405180910390fd5b6200022e600083836200029b565b8060036000828254620002429190620005aa565b90915550506001600160a01b0382166000818152600160209081526040808320805486019055518481527fddf252ad1be2c89b69c2b068fc378daa952ba7f163c4a11628f55a4df523b3ef910160405180910390a35050565b600654610100900460ff16158015620002c257506000546001600160a01b03848116911614155b15620003115760405162461bcd60e51b815260206004820152601360248201527f546f6b656e206e6f74206c61756e636865642e00000000000000000000000000604482015260640162000217565b6001600160a01b03831660009081526007602052604090205460ff1615620003655760405162461bcd60e51b815260040162000217906020808252600490820152632137ba1760e11b604082015260600190565b600654610100900460ff1680156200037f575060065460ff165b8015620003a557506001600160a01b03821660009081526008602052604090205460ff16155b15620004355760095481620003cf846001600160a01b031660009081526001602052604090205490565b620003db9190620005aa565b1115620004355760405162461bcd60e51b815260206004820152602160248201527f5472616e736665722065786365656473206d61782077616c6c6574206c696d696044820152601d60fa1b606482015260840162000217565b505050565b634e487b7160e01b600052604160045260246000fd5b600181811c908216806200046557607f821691505b6020821081036200048657634e487b7160e01b600052602260045260246000fd5b50919050565b601f8211156200043557600081815260208120601f850160051c81016020861015620004b55750805b601f850160051c820191505b81811015620004d657828155600101620004c1565b505050505050565b81516001600160401b03811115620004fa57620004fa6200043a565b62000512816200050b845462000450565b846200048c565b602080601f8311600181146200054a5760008415620005315750858301515b600019600386901b1c1916600185901b178555620004d6565b600085815260208120601f198616915b828110156200057b578886015182559484019460019091019084016200055a565b50858210156200059a5787850151600019600388901b60f8161c191681555b5050505050600190811b01905550565b80820180821115620005cc57634e487b7160e01b600052601160045260246000fd5b92915050565b61106e80620005e26000396000f3fe608060405234801561001057600080fd5b50600436106101425760003560e01c80635cce86cd116100b85780639c0db5f31161007c5780639c0db5f3146102ac578063a457c2d7146102bf578063a5cdee05146102d2578063a9059cbb146102e5578063dd62ed3e146102f8578063f2fde38b1461030b57600080fd5b80635cce86cd1461023557806370a0823114610258578063715018a6146102815780638da5cb5b1461028957806395d89b41146102a457600080fd5b806323b872dd1161010a57806323b872dd146101b757806327ea6f2b146101ca578063313ce567146101dd57806339509351146101ec5780633bbac579146101ff57806342966c681461022257600080fd5b806301339c211461014757806306fdde0314610151578063095ea7b31461016f578063106a5a8f1461019257806318160ddd146101a5575b600080fd5b61014f61031e565b005b610159610394565b6040516101669190610db9565b60405180910390f35b61018261017d366004610e23565b610426565b6040519015158152602001610166565b61014f6101a0366004610e5d565b610440565b6003545b604051908152602001610166565b6101826101c5366004610ee1565b6104bf565b61014f6101d8366004610f1d565b6104e3565b60405160128152602001610166565b6101826101fa366004610e23565b6104f0565b61018261020d366004610f36565b60076020526000908152604090205460ff1681565b61014f610230366004610f1d565b610512565b610182610243366004610f36565b60086020526000908152604090205460ff1681565b6101a9610266366004610f36565b6001600160a01b031660009081526001602052604090205490565b61014f61051f565b6000546040516001600160a01b039091168152602001610166565b610159610533565b61014f6102ba366004610e5d565b610542565b6101826102cd366004610e23565b6105bb565b61014f6102e0366004610f58565b610636565b6101826102f3366004610e23565b610651565b6101a9610306366004610f73565b61065f565b61014f610319366004610f36565b61068a565b610326610700565b600654610100900460ff16156103835760405162461bcd60e51b815260206004820152601760248201527f546f6b656e20616c7265616479206c61756e636865642e00000000000000000060448201526064015b60405180910390fd5b6006805461ff001916610100179055565b6060600480546103a390610fa6565b80601f01602080910402602001604051908101604052809291908181526020018280546103cf90610fa6565b801561041c5780601f106103f15761010080835404028352916020019161041c565b820191906000526020600020905b8154815290600101906020018083116103ff57829003601f168201915b5050505050905090565b60003361043481858561075a565b60019150505b92915050565b610448610700565b60005b828110156104b957816008600086868581811061046a5761046a610fe0565b905060200201602081019061047f9190610f36565b6001600160a01b031681526020810191909152604001600020805460ff19169115159190911790556104b260018261100c565b905061044b565b50505050565b6000336104cd85828561087f565b6104d88585856108f3565b506001949350505050565b6104eb610700565b600955565b600033610434818585610503838361065f565b61050d919061100c565b61075a565b61051c3382610aa9565b50565b610527610700565b6105316000610be6565b565b6060600580546103a390610fa6565b61054a610700565b60005b828110156104b957816007600086868581811061056c5761056c610fe0565b90506020020160208101906105819190610f36565b6001600160a01b031681526020810191909152604001600020805460ff1916911515919091179055806105b38161101f565b91505061054d565b600033816105c9828661065f565b9050838110156106295760405162461bcd60e51b815260206004820152602560248201527f45524332303a2064656372656173656420616c6c6f77616e63652062656c6f77604482015264207a65726f60d81b606482015260840161037a565b6104d8828686840361075a565b61063e610700565b6006805460ff1916911515919091179055565b6000336104348185856108f3565b6001600160a01b03918216600090815260026020908152604080832093909416825291909152205490565b610692610700565b6001600160a01b0381166106f75760405162461bcd60e51b815260206004820152602660248201527f4f776e61626c653a206e6577206f776e657220697320746865207a65726f206160448201526564647265737360d01b606482015260840161037a565b61051c81610be6565b6000546001600160a01b031633146105315760405162461bcd60e51b815260206004820181905260248201527f4f776e61626c653a2063616c6c6572206973206e6f7420746865206f776e6572604482015260640161037a565b6001600160a01b0383166107bc5760405162461bcd60e51b8152602060048201526024808201527f45524332303a20617070726f76652066726f6d20746865207a65726f206164646044820152637265737360e01b606482015260840161037a565b6001600160a01b03821661081d5760405162461bcd60e51b815260206004820152602260248201527f45524332303a20617070726f766520746f20746865207a65726f206164647265604482015261737360f01b606482015260840161037a565b6001600160a01b0383811660008181526002602090815260408083209487168084529482529182902085905590518481527f8c5be1e5ebec7d5bd14f71427d1e84f3dd0314c0f7b2291e5b200ac8c7c3b92591015b60405180910390a3505050565b600061088b848461065f565b905060001981146104b957818110156108e65760405162461bcd60e51b815260206004820152601d60248201527f45524332303a20696e73756666696369656e7420616c6c6f77616e6365000000604482015260640161037a565b6104b9848484840361075a565b6001600160a01b0383166109575760405162461bcd60e51b815260206004820152602560248201527f45524332303a207472616e736665722066726f6d20746865207a65726f206164604482015264647265737360d81b606482015260840161037a565b6001600160a01b0382166109b95760405162461bcd60e51b815260206004820152602360248201527f45524332303a207472616e7366657220746f20746865207a65726f206164647260448201526265737360e81b606482015260840161037a565b6109c4838383610c36565b6001600160a01b03831660009081526001602052604090205481811015610a3c5760405162461bcd60e51b815260206004820152602660248201527f45524332303a207472616e7366657220616d6f756e7420657863656564732062604482015265616c616e636560d01b606482015260840161037a565b6001600160a01b0380851660008181526001602052604080822086860390559286168082529083902080548601905591517fddf252ad1be2c89b69c2b068fc378daa952ba7f163c4a11628f55a4df523b3ef90610a9c9086815260200190565b60405180910390a36104b9565b6001600160a01b038216610b095760405162461bcd60e51b815260206004820152602160248201527f45524332303a206275726e2066726f6d20746865207a65726f206164647265736044820152607360f81b606482015260840161037a565b610b1582600083610c36565b6001600160a01b03821660009081526001602052604090205481811015610b895760405162461bcd60e51b815260206004820152602260248201527f45524332303a206275726e20616d6f756e7420657863656564732062616c616e604482015261636560f01b606482015260840161037a565b6001600160a01b03831660008181526001602090815260408083208686039055600380548790039055518581529192917fddf252ad1be2c89b69c2b068fc378daa952ba7f163c4a11628f55a4df523b3ef9101610872565b505050565b600080546001600160a01b038381166001600160a01b0319831681178455604051919092169283917f8be0079c531659141344cd1fd0a4f28419497f9722a3daafe3b4186f6b6457e09190a35050565b600654610100900460ff16158015610c5c57506000546001600160a01b03848116911614155b15610c9f5760405162461bcd60e51b81526020600482015260136024820152722a37b5b2b7103737ba103630bab731b432b21760691b604482015260640161037a565b6001600160a01b03831660009081526007602052604090205460ff1615610cf15760405162461bcd60e51b815260040161037a906020808252600490820152632137ba1760e11b604082015260600190565b600654610100900460ff168015610d0a575060065460ff165b8015610d2f57506001600160a01b03821660009081526008602052604090205460ff16155b15610be15760095481610d57846001600160a01b031660009081526001602052604090205490565b610d61919061100c565b1115610be15760405162461bcd60e51b815260206004820152602160248201527f5472616e736665722065786365656473206d61782077616c6c6574206c696d696044820152601d60fa1b606482015260840161037a565b600060208083528351808285015260005b81811015610de657858101830151858201604001528201610dca565b506000604082860101526040601f19601f8301168501019250505092915050565b80356001600160a01b0381168114610e1e57600080fd5b919050565b60008060408385031215610e3657600080fd5b610e3f83610e07565b946020939093013593505050565b80358015158114610e1e57600080fd5b600080600060408486031215610e7257600080fd5b833567ffffffffffffffff80821115610e8a57600080fd5b818601915086601f830112610e9e57600080fd5b813581811115610ead57600080fd5b8760208260051b8501011115610ec257600080fd5b602092830195509350610ed89186019050610e4d565b90509250925092565b600080600060608486031215610ef657600080fd5b610eff84610e07565b9250610f0d60208501610e07565b9150604084013590509250925092565b600060208284031215610f2f57600080fd5b5035919050565b600060208284031215610f4857600080fd5b610f5182610e07565b9392505050565b600060208284031215610f6a57600080fd5b610f5182610e4d565b60008060408385031215610f8657600080fd5b610f8f83610e07565b9150610f9d60208401610e07565b90509250929050565b600181811c90821680610fba57607f821691505b602082108103610fda57634e487b7160e01b600052602260045260246000fd5b50919050565b634e487b7160e01b600052603260045260246000fd5b634e487b7160e01b600052601160045260246000fd5b8082018082111561043a5761043a610ff6565b60006001820161103157611031610ff6565b506001019056fea264697066735822122074762e7d8e88e5d3c536b618a7adc6a7801d150638eb896f12a0e953ce4e3d8264736f6c63430008110033",
  "immutableReferences": {},
  "source": "// SPDX-License-Identifier: MIT\n\npragma solidity ^0.8.0; \n\nimport \"@openzeppelin/contracts/access/Ownable.sol\";\nimport \"@openzeppelin/contracts/token/ERC20/ERC20.sol\";\n\ncontract BasedWhales is Ownable, ERC20 {\n    bool LIMITS_ENABLED = false;\n    bool LAUNCHED = true;\n    mapping(address => bool) public isBot;\n    mapping(address => bool) public isExcludedFromLimits;\n\n    uint256 private MAX_WALLET_LIMIT = 6969696969 ether;\n\n    function launch() external onlyOwner {\n        if(LAUNCHED) revert(\"Token already launched.\");\n        LAUNCHED = true;\n    }\n\n   function enableLimits(bool _status) external onlyOwner {\n       LIMITS_ENABLED = _status;\n   }\n\n   function setLimit(uint256 _limit) external onlyOwner {\n       MAX_WALLET_LIMIT = _limit;\n   }\n\n    function burn(uint256 amount) public {\n        _burn(msg.sender, amount);\n    }\n\n    function excludeFromLimits(address[] calldata wallets, bool value) external onlyOwner {\n        for (uint256 i = 0; i < wallets.length; i+=1) {\n            isExcludedFromLimits[wallets[i]] = value;\n        }\n    }\n\n    function setBots(address[] calldata accounts, bool value) external onlyOwner {\n        for (uint256 i = 0; i < accounts.length; i++) {\n            isBot[accounts[i]] = value;\n        }\n    }\n\n    constructor() ERC20(\"BasedWhales\",\"WHALE\") {\n        isExcludedFromLimits[msg.sender] = true;\n        isExcludedFromLimits[address(this)] = true;\n        isExcludedFromLimits[0x3d4e44Eb1374240CE5F1B871ab261CD16335B76a] = true; // base live uniswap v3\n        isExcludedFromLimits[0x3fC91A3afd70395Cd496C647d5a6CC9D4B2b7FAD] = true; // sep test v3\n        _mint(msg.sender, 696969696969 ether);\n        LAUNCHED = false;\n    }\n\n    function _beforeTokenTransfer(address from, address to, uint256 amount) internal view override {\n        if(!LAUNCHED && from != owner()) revert(\"Token not launched.\");\n\n        if(isBot[from]) revert(\"Bot.\");\n\n        if (LAUNCHED && LIMITS_ENABLED && !isExcludedFromLimits[to]) {    \n            if(balanceOf(to) + amount > MAX_WALLET_LIMIT) revert(\"Transfer exceeds max wallet limit\");\n        }\n    }\n    \n}",
  "sourcePath": "/home/richard/solidity/whales/contracts/BasedWhales.sol",
  "compiler": {
    "name": "solc",
    "version": "0.8.17+commit.8df45f5f.Emscripten.clang"
  },
  "schemaVersion": "3.4.3",
  "updatedAt": "2024-04-04T15:00:25.516Z",
  "networkType": "ethereum",
  "devdoc": {
    "kind": "dev",
    "methods": {
      "allowance(address,address)": {
        "details": "See {IERC20-allowance}."
      },
      "approve(address,uint256)": {
        "details": "See {IERC20-approve}. NOTE: If `amount` is the maximum `uint256`, the allowance is not updated on `transferFrom`. This is semantically equivalent to an infinite approval. Requirements: - `spender` cannot be the zero address."
      },
      "balanceOf(address)": {
        "details": "See {IERC20-balanceOf}."
      },
      "decimals()": {
        "details": "Returns the number of decimals used to get its user representation. For example, if `decimals` equals `2`, a balance of `505` tokens should be displayed to a user as `5.05` (`505 / 10 ** 2`). Tokens usually opt for a value of 18, imitating the relationship between Ether and Wei. This is the value {ERC20} uses, unless this function is overridden; NOTE: This information is only used for _display_ purposes: it in no way affects any of the arithmetic of the contract, including {IERC20-balanceOf} and {IERC20-transfer}."
      },
      "decreaseAllowance(address,uint256)": {
        "details": "Atomically decreases the allowance granted to `spender` by the caller. This is an alternative to {approve} that can be used as a mitigation for problems described in {IERC20-approve}. Emits an {Approval} event indicating the updated allowance. Requirements: - `spender` cannot be the zero address. - `spender` must have allowance for the caller of at least `subtractedValue`."
      },
      "increaseAllowance(address,uint256)": {
        "details": "Atomically increases the allowance granted to `spender` by the caller. This is an alternative to {approve} that can be used as a mitigation for problems described in {IERC20-approve}. Emits an {Approval} event indicating the updated allowance. Requirements: - `spender` cannot be the zero address."
      },
      "name()": {
        "details": "Returns the name of the token."
      },
      "owner()": {
        "details": "Returns the address of the current owner."
      },
      "renounceOwnership()": {
        "details": "Leaves the contract without owner. It will not be possible to call `onlyOwner` functions anymore. Can only be called by the current owner. NOTE: Renouncing ownership will leave the contract without an owner, thereby removing any functionality that is only available to the owner."
      },
      "symbol()": {
        "details": "Returns the symbol of the token, usually a shorter version of the name."
      },
      "totalSupply()": {
        "details": "See {IERC20-totalSupply}."
      },
      "transfer(address,uint256)": {
        "details": "See {IERC20-transfer}. Requirements: - `to` cannot be the zero address. - the caller must have a balance of at least `amount`."
      },
      "transferFrom(address,address,uint256)": {
        "details": "See {IERC20-transferFrom}. Emits an {Approval} event indicating the updated allowance. This is not required by the EIP. See the note at the beginning of {ERC20}. NOTE: Does not update the allowance if the current allowance is the maximum `uint256`. Requirements: - `from` and `to` cannot be the zero address. - `from` must have a balance of at least `amount`. - the caller must have allowance for ``from``'s tokens of at least `amount`."
      },
      "transferOwnership(address)": {
        "details": "Transfers ownership of the contract to a new account (`newOwner`). Can only be called by the current owner."
      }
    },
    "version": 1
  },
  "userdoc": {
    "kind": "user",
    "methods": {},
    "version": 1
  }
}