{
  "contractName": "Batcher",
  "abi": [
    {
      "inputs": [],
      "stateMutability": "nonpayable",
      "type": "constructor"
    },
    {
      "anonymous": false,
      "inputs": [
        {
          "indexed": true,
          "internalType": "address",
          "name": "previousOwner",
          "type": "address"
        },
        {
          "indexed": true,
          "internalType": "address",
          "name": "newOwner",
          "type": "address"
        }
      ],
      "name": "OwnershipTransferred",
      "type": "event"
    },
    {
      "inputs": [],
      "name": "owner",
      "outputs": [
        {
          "internalType": "address",
          "name": "",
          "type": "address"
        }
      ],
      "stateMutability": "view",
      "type": "function",
      "constant": true
    },
    {
      "inputs": [],
      "name": "renounceOwnership",
      "outputs": [],
      "stateMutability": "nonpayable",
      "type": "function"
    },
    {
      "inputs": [
        {
          "internalType": "address",
          "name": "newOwner",
          "type": "address"
        }
      ],
      "name": "transferOwnership",
      "outputs": [],
      "stateMutability": "nonpayable",
      "type": "function"
    },
    {
      "inputs": [
        {
          "internalType": "address[]",
          "name": "targets",
          "type": "address[]"
        },
        {
          "internalType": "uint256[]",
          "name": "values",
          "type": "uint256[]"
        },
        {
          "internalType": "bytes[]",
          "name": "datas",
          "type": "bytes[]"
        }
      ],
      "name": "batchSend",
      "outputs": [],
      "stateMutability": "payable",
      "type": "function",
      "payable": true
    }
  ],
  "bytecode": "0x608060405234801561001057600080fd5b5061001a3361001f565b61006f565b600080546001600160a01b038381166001600160a01b0319831681178455604051919092169283917f8be0079c531659141344cd1fd0a4f28419497f9722a3daafe3b4186f6b6457e09190a35050565b61068f8061007e6000396000f3fe60806040526004361061003f5760003560e01c8063715018a6146100445780638da5cb5b1461005b578063a8f0802e14610087578063f2fde38b1461009a575b600080fd5b34801561005057600080fd5b506100596100ba565b005b34801561006757600080fd5b50600054604080516001600160a01b039092168252519081900360200190f35b6100596100953660046104e7565b6100ce565b3480156100a657600080fd5b506100596100b53660046105cb565b6101ee565b6100c2610267565b6100cc60006102c1565b565b6100d6610267565b60005b83518110156101e85760008482815181106100f6576100f66105ed565b60200260200101516001600160a01b0316848381518110610119576101196105ed565b6020026020010151848481518110610133576101336105ed565b60200260200101516040516101489190610603565b60006040518083038185875af1925050503d8060008114610185576040519150601f19603f3d011682016040523d82523d6000602084013e61018a565b606091505b50509050806101d55760405162461bcd60e51b81526020600482015260126024820152711d1c985b9cd858dd1a5bdb8819985a5b195960721b60448201526064015b60405180910390fd5b50806101e081610632565b9150506100d9565b50505050565b6101f6610267565b6001600160a01b03811661025b5760405162461bcd60e51b815260206004820152602660248201527f4f776e61626c653a206e6577206f776e657220697320746865207a65726f206160448201526564647265737360d01b60648201526084016101cc565b610264816102c1565b50565b6000546001600160a01b031633146100cc5760405162461bcd60e51b815260206004820181905260248201527f4f776e61626c653a2063616c6c6572206973206e6f7420746865206f776e657260448201526064016101cc565b600080546001600160a01b038381166001600160a01b0319831681178455604051919092169283917f8be0079c531659141344cd1fd0a4f28419497f9722a3daafe3b4186f6b6457e09190a35050565b634e487b7160e01b600052604160045260246000fd5b604051601f8201601f1916810167ffffffffffffffff8111828210171561035057610350610311565b604052919050565b600067ffffffffffffffff82111561037257610372610311565b5060051b60200190565b80356001600160a01b038116811461039357600080fd5b919050565b600082601f8301126103a957600080fd5b813560206103be6103b983610358565b610327565b82815260059290921b840181019181810190868411156103dd57600080fd5b8286015b848110156103f857803583529183019183016103e1565b509695505050505050565b6000601f838184011261041557600080fd5b823560206104256103b983610358565b82815260059290921b8501810191818101908784111561044457600080fd5b8287015b848110156104db57803567ffffffffffffffff808211156104695760008081fd5b818a0191508a603f83011261047e5760008081fd5b8582013560408282111561049457610494610311565b6104a5828b01601f19168901610327565b92508183528c818386010111156104bc5760008081fd5b8181850189850137506000908201870152845250918301918301610448565b50979650505050505050565b6000806000606084860312156104fc57600080fd5b833567ffffffffffffffff8082111561051457600080fd5b818601915086601f83011261052857600080fd5b813560206105386103b983610358565b82815260059290921b8401810191818101908a84111561055757600080fd5b948201945b8386101561057c5761056d8661037c565b8252948201949082019061055c565b9750508701359250508082111561059257600080fd5b61059e87838801610398565b935060408601359150808211156105b457600080fd5b506105c186828701610403565b9150509250925092565b6000602082840312156105dd57600080fd5b6105e68261037c565b9392505050565b634e487b7160e01b600052603260045260246000fd5b6000825160005b81811015610624576020818601810151858301520161060a565b506000920191825250919050565b60006001820161065257634e487b7160e01b600052601160045260246000fd5b506001019056fea26469706673582212206bc4d3f4411a6abfde5ab9d53992f217b4055dda707cdc8584cf6615c9dbc02c64736f6c63430008110033",
  "immutableReferences": {},
  "source": "\npragma solidity ^0.8.0; \npragma abicoder v2;\n\nimport \"@openzeppelin/contracts/access/Ownable.sol\";\nimport \"@openzeppelin/contracts/token/ERC20/IERC20.sol\";\n\ncontract Batcher is Ownable {\n    constructor() {\n\n    }\n\n    function batchSend(address[] memory targets, uint[] memory values, bytes[] memory datas) public payable onlyOwner {\n        for (uint i = 0; i < targets.length; i++) {\n            (bool success,) = targets[i].call{value:values[i]}(datas[i]);\n            if (!success) revert('transaction failed');\n        }\n    }\n}",
  "sourcePath": "/home/richard/solidity/whales/contracts/Batcher.sol",
  "compiler": {
    "name": "solc",
    "version": "0.8.17+commit.8df45f5f.Emscripten.clang"
  },
  "schemaVersion": "3.4.3",
  "updatedAt": "2024-04-04T15:00:37.875Z",
  "networkType": "ethereum",
  "devdoc": {
    "kind": "dev",
    "methods": {
      "owner()": {
        "details": "Returns the address of the current owner."
      },
      "renounceOwnership()": {
        "details": "Leaves the contract without owner. It will not be possible to call `onlyOwner` functions anymore. Can only be called by the current owner. NOTE: Renouncing ownership will leave the contract without an owner, thereby removing any functionality that is only available to the owner."
      },
      "transferOwnership(address)": {
        "details": "Transfers ownership of the contract to a new account (`newOwner`). Can only be called by the current owner."
      }
    },
    "version": 1
  },
  "userdoc": {
    "kind": "user",
    "methods": {},
    "version": 1
  }
}