{
  "contractName": "WhalesOnBase",
  "abi": [
    {
      "inputs": [],
      "stateMutability": "nonpayable",
      "type": "constructor"
    },
    {
      "anonymous": false,
      "inputs": [
        {
          "indexed": true,
          "internalType": "address",
          "name": "owner",
          "type": "address"
        },
        {
          "indexed": true,
          "internalType": "address",
          "name": "spender",
          "type": "address"
        },
        {
          "indexed": false,
          "internalType": "uint256",
          "name": "value",
          "type": "uint256"
        }
      ],
      "name": "Approval",
      "type": "event"
    },
    {
      "anonymous": false,
      "inputs": [
        {
          "indexed": true,
          "internalType": "address",
          "name": "previousOwner",
          "type": "address"
        },
        {
          "indexed": true,
          "internalType": "address",
          "name": "newOwner",
          "type": "address"
        }
      ],
      "name": "OwnershipTransferred",
      "type": "event"
    },
    {
      "anonymous": false,
      "inputs": [
        {
          "indexed": true,
          "internalType": "address",
          "name": "from",
          "type": "address"
        },
        {
          "indexed": true,
          "internalType": "address",
          "name": "to",
          "type": "address"
        },
        {
          "indexed": false,
          "internalType": "uint256",
          "name": "value",
          "type": "uint256"
        }
      ],
      "name": "Transfer",
      "type": "event"
    },
    {
      "inputs": [
        {
          "internalType": "address",
          "name": "owner",
          "type": "address"
        },
        {
          "internalType": "address",
          "name": "spender",
          "type": "address"
        }
      ],
      "name": "allowance",
      "outputs": [
        {
          "internalType": "uint256",
          "name": "",
          "type": "uint256"
        }
      ],
      "stateMutability": "view",
      "type": "function",
      "constant": true
    },
    {
      "inputs": [
        {
          "internalType": "address",
          "name": "spender",
          "type": "address"
        },
        {
          "internalType": "uint256",
          "name": "amount",
          "type": "uint256"
        }
      ],
      "name": "approve",
      "outputs": [
        {
          "internalType": "bool",
          "name": "",
          "type": "bool"
        }
      ],
      "stateMutability": "nonpayable",
      "type": "function"
    },
    {
      "inputs": [
        {
          "internalType": "address",
          "name": "account",
          "type": "address"
        }
      ],
      "name": "balanceOf",
      "outputs": [
        {
          "internalType": "uint256",
          "name": "",
          "type": "uint256"
        }
      ],
      "stateMutability": "view",
      "type": "function",
      "constant": true
    },
    {
      "inputs": [],
      "name": "decimals",
      "outputs": [
        {
          "internalType": "uint8",
          "name": "",
          "type": "uint8"
        }
      ],
      "stateMutability": "view",
      "type": "function",
      "constant": true
    },
    {
      "inputs": [
        {
          "internalType": "address",
          "name": "spender",
          "type": "address"
        },
        {
          "internalType": "uint256",
          "name": "subtractedValue",
          "type": "uint256"
        }
      ],
      "name": "decreaseAllowance",
      "outputs": [
        {
          "internalType": "bool",
          "name": "",
          "type": "bool"
        }
      ],
      "stateMutability": "nonpayable",
      "type": "function"
    },
    {
      "inputs": [
        {
          "internalType": "address",
          "name": "spender",
          "type": "address"
        },
        {
          "internalType": "uint256",
          "name": "addedValue",
          "type": "uint256"
        }
      ],
      "name": "increaseAllowance",
      "outputs": [
        {
          "internalType": "bool",
          "name": "",
          "type": "bool"
        }
      ],
      "stateMutability": "nonpayable",
      "type": "function"
    },
    {
      "inputs": [
        {
          "internalType": "address",
          "name": "",
          "type": "address"
        }
      ],
      "name": "isBot",
      "outputs": [
        {
          "internalType": "bool",
          "name": "",
          "type": "bool"
        }
      ],
      "stateMutability": "view",
      "type": "function",
      "constant": true
    },
    {
      "inputs": [
        {
          "internalType": "address",
          "name": "",
          "type": "address"
        }
      ],
      "name": "isExcludedFromLimits",
      "outputs": [
        {
          "internalType": "bool",
          "name": "",
          "type": "bool"
        }
      ],
      "stateMutability": "view",
      "type": "function",
      "constant": true
    },
    {
      "inputs": [],
      "name": "name",
      "outputs": [
        {
          "internalType": "string",
          "name": "",
          "type": "string"
        }
      ],
      "stateMutability": "view",
      "type": "function",
      "constant": true
    },
    {
      "inputs": [],
      "name": "owner",
      "outputs": [
        {
          "internalType": "address",
          "name": "",
          "type": "address"
        }
      ],
      "stateMutability": "view",
      "type": "function",
      "constant": true
    },
    {
      "inputs": [],
      "name": "renounceOwnership",
      "outputs": [],
      "stateMutability": "nonpayable",
      "type": "function"
    },
    {
      "inputs": [],
      "name": "symbol",
      "outputs": [
        {
          "internalType": "string",
          "name": "",
          "type": "string"
        }
      ],
      "stateMutability": "view",
      "type": "function",
      "constant": true
    },
    {
      "inputs": [],
      "name": "totalSupply",
      "outputs": [
        {
          "internalType": "uint256",
          "name": "",
          "type": "uint256"
        }
      ],
      "stateMutability": "view",
      "type": "function",
      "constant": true
    },
    {
      "inputs": [
        {
          "internalType": "address",
          "name": "to",
          "type": "address"
        },
        {
          "internalType": "uint256",
          "name": "amount",
          "type": "uint256"
        }
      ],
      "name": "transfer",
      "outputs": [
        {
          "internalType": "bool",
          "name": "",
          "type": "bool"
        }
      ],
      "stateMutability": "nonpayable",
      "type": "function"
    },
    {
      "inputs": [
        {
          "internalType": "address",
          "name": "from",
          "type": "address"
        },
        {
          "internalType": "address",
          "name": "to",
          "type": "address"
        },
        {
          "internalType": "uint256",
          "name": "amount",
          "type": "uint256"
        }
      ],
      "name": "transferFrom",
      "outputs": [
        {
          "internalType": "bool",
          "name": "",
          "type": "bool"
        }
      ],
      "stateMutability": "nonpayable",
      "type": "function"
    },
    {
      "inputs": [
        {
          "internalType": "address",
          "name": "newOwner",
          "type": "address"
        }
      ],
      "name": "transferOwnership",
      "outputs": [],
      "stateMutability": "nonpayable",
      "type": "function"
    },
    {
      "inputs": [],
      "name": "launch",
      "outputs": [],
      "stateMutability": "nonpayable",
      "type": "function"
    },
    {
      "inputs": [
        {
          "internalType": "uint256",
          "name": "amount",
          "type": "uint256"
        }
      ],
      "name": "burn",
      "outputs": [],
      "stateMutability": "nonpayable",
      "type": "function"
    },
    {
      "inputs": [
        {
          "internalType": "address[]",
          "name": "wallets",
          "type": "address[]"
        },
        {
          "internalType": "bool",
          "name": "value",
          "type": "bool"
        }
      ],
      "name": "excludeFromLimits",
      "outputs": [],
      "stateMutability": "nonpayable",
      "type": "function"
    },
    {
      "inputs": [
        {
          "internalType": "address[]",
          "name": "accounts",
          "type": "address[]"
        },
        {
          "internalType": "bool",
          "name": "value",
          "type": "bool"
        }
      ],
      "name": "setBots",
      "outputs": [],
      "stateMutability": "nonpayable",
      "type": "function"
    }
  ],
  "bytecode": "0x60806040526006805461ffff191660011790553480156200001f57600080fd5b50604051806040016040528060038152602001622c2cad60e91b815250604051806040016040528060038152602001622c2cad60e91b815250620000726200006c6200014a60201b60201c565b6200014e565b600462000080838262000551565b5060056200008f828262000551565b5050336000818152600860205260408082208054600160ff19918216811790925530845291832080548316821790557fa259d16c18ce8298fd202da0c47d787b63db9393266b3ae5dd26a41c53e236028054831682179055733fc91a3afd70395cd496c647d5a6cc9d4b2b7fad9092527fa5c15fcfc511e31f008250e4383e43149f005ad3c77db5b55e613c754f80f5a2805490911690911790556200014491506c08cc07d22484865507058400006200019e565b62000645565b3390565b600080546001600160a01b038381166001600160a01b0319831681178455604051919092169283917f8be0079c531659141344cd1fd0a4f28419497f9722a3daafe3b4186f6b6457e09190a35050565b6001600160a01b038216620001fa5760405162461bcd60e51b815260206004820152601f60248201527f45524332303a206d696e7420746f20746865207a65726f20616464726573730060448201526064015b60405180910390fd5b620002086000838362000275565b80600360008282546200021c91906200061d565b90915550506001600160a01b0382166000818152600160209081526040808320805486019055518481527fddf252ad1be2c89b69c2b068fc378daa952ba7f163c4a11628f55a4df523b3ef910160405180910390a35050565b600654610100900460ff16158015620002a757506001600160a01b03831660009081526008602052604090205460ff16155b8015620002cd57506001600160a01b03821660009081526008602052604090205460ff16155b156200031c5760405162461bcd60e51b815260206004820152601360248201527f546f6b656e206e6f74206c61756e636865642e000000000000000000000000006044820152606401620001f1565b6001600160a01b03831660009081526007602052604090205460ff1615620003705760405162461bcd60e51b8152600401620001f1906020808252600490820152632137ba1760e11b604082015260600190565b600654610100900460ff1680156200038a575060065460ff165b8015620003b057506001600160a01b03821660009081526008602052604090205460ff16155b15620004a8576b168532bdc48cb0ddb5840000811115620004145760405162461bcd60e51b815260206004820152601e60248201527f45786365656473206d6178207472616e73616374696f6e20616d6f756e7400006044820152606401620001f1565b6b7099fdb50061986f81c000008162000442846001600160a01b031660009081526001602052604090205490565b6200044e91906200061d565b1115620004a85760405162461bcd60e51b815260206004820152602160248201527f5472616e736665722065786365656473206d61782077616c6c6574206c696d696044820152601d60fa1b6064820152608401620001f1565b505050565b634e487b7160e01b600052604160045260246000fd5b600181811c90821680620004d857607f821691505b602082108103620004f957634e487b7160e01b600052602260045260246000fd5b50919050565b601f821115620004a857600081815260208120601f850160051c81016020861015620005285750805b601f850160051c820191505b81811015620005495782815560010162000534565b505050505050565b81516001600160401b038111156200056d576200056d620004ad565b62000585816200057e8454620004c3565b84620004ff565b602080601f831160018114620005bd5760008415620005a45750858301515b600019600386901b1c1916600185901b17855562000549565b600085815260208120601f198616915b82811015620005ee57888601518255948401946001909101908401620005cd565b50858210156200060d5787850151600019600388901b60f8161c191681555b5050505050600190811b01905550565b808201808211156200063f57634e487b7160e01b600052601160045260246000fd5b92915050565b61107c80620006556000396000f3fe608060405234801561001057600080fd5b506004361061012c5760003560e01c80635cce86cd116100ad5780639c0db5f3116100715780639c0db5f314610283578063a457c2d714610296578063a9059cbb146102a9578063dd62ed3e146102bc578063f2fde38b146102cf57600080fd5b80635cce86cd1461020c57806370a082311461022f578063715018a6146102585780638da5cb5b1461026057806395d89b411461027b57600080fd5b806323b872dd116100f457806323b872dd146101a1578063313ce567146101b457806339509351146101c35780633bbac579146101d657806342966c68146101f957600080fd5b806301339c211461013157806306fdde031461013b578063095ea7b314610159578063106a5a8f1461017c57806318160ddd1461018f575b600080fd5b6101396102e2565b005b610143610358565b6040516101509190610deb565b60405180910390f35b61016c610167366004610e55565b6103ea565b6040519015158152602001610150565b61013961018a366004610e7f565b610404565b6003545b604051908152602001610150565b61016c6101af366004610f0a565b610483565b60405160128152602001610150565b61016c6101d1366004610e55565b6104a7565b61016c6101e4366004610f46565b60076020526000908152604090205460ff1681565b610139610207366004610f68565b6104c9565b61016c61021a366004610f46565b60086020526000908152604090205460ff1681565b61019361023d366004610f46565b6001600160a01b031660009081526001602052604090205490565b6101396104d6565b6000546040516001600160a01b039091168152602001610150565b6101436104ea565b610139610291366004610e7f565b6104f9565b61016c6102a4366004610e55565b610572565b61016c6102b7366004610e55565b6105ed565b6101936102ca366004610f81565b6105fb565b6101396102dd366004610f46565b610626565b6102ea61069c565b600654610100900460ff16156103475760405162461bcd60e51b815260206004820152601760248201527f546f6b656e20616c7265616479206c61756e636865642e00000000000000000060448201526064015b60405180910390fd5b6006805461ff001916610100179055565b60606004805461036790610fb4565b80601f016020809104026020016040519081016040528092919081815260200182805461039390610fb4565b80156103e05780601f106103b5576101008083540402835291602001916103e0565b820191906000526020600020905b8154815290600101906020018083116103c357829003601f168201915b5050505050905090565b6000336103f88185856106f6565b60019150505b92915050565b61040c61069c565b60005b8281101561047d57816008600086868581811061042e5761042e610fee565b90506020020160208101906104439190610f46565b6001600160a01b031681526020810191909152604001600020805460ff191691151591909117905561047660018261101a565b905061040f565b50505050565b60003361049185828561081b565b61049c85858561088f565b506001949350505050565b6000336103f88185856104ba83836105fb565b6104c4919061101a565b6106f6565b6104d33382610a45565b50565b6104de61069c565b6104e86000610b82565b565b60606005805461036790610fb4565b61050161069c565b60005b8281101561047d57816007600086868581811061052357610523610fee565b90506020020160208101906105389190610f46565b6001600160a01b031681526020810191909152604001600020805460ff19169115159190911790558061056a8161102d565b915050610504565b6000338161058082866105fb565b9050838110156105e05760405162461bcd60e51b815260206004820152602560248201527f45524332303a2064656372656173656420616c6c6f77616e63652062656c6f77604482015264207a65726f60d81b606482015260840161033e565b61049c82868684036106f6565b6000336103f881858561088f565b6001600160a01b03918216600090815260026020908152604080832093909416825291909152205490565b61062e61069c565b6001600160a01b0381166106935760405162461bcd60e51b815260206004820152602660248201527f4f776e61626c653a206e6577206f776e657220697320746865207a65726f206160448201526564647265737360d01b606482015260840161033e565b6104d381610b82565b6000546001600160a01b031633146104e85760405162461bcd60e51b815260206004820181905260248201527f4f776e61626c653a2063616c6c6572206973206e6f7420746865206f776e6572604482015260640161033e565b6001600160a01b0383166107585760405162461bcd60e51b8152602060048201526024808201527f45524332303a20617070726f76652066726f6d20746865207a65726f206164646044820152637265737360e01b606482015260840161033e565b6001600160a01b0382166107b95760405162461bcd60e51b815260206004820152602260248201527f45524332303a20617070726f766520746f20746865207a65726f206164647265604482015261737360f01b606482015260840161033e565b6001600160a01b0383811660008181526002602090815260408083209487168084529482529182902085905590518481527f8c5be1e5ebec7d5bd14f71427d1e84f3dd0314c0f7b2291e5b200ac8c7c3b92591015b60405180910390a3505050565b600061082784846105fb565b9050600019811461047d57818110156108825760405162461bcd60e51b815260206004820152601d60248201527f45524332303a20696e73756666696369656e7420616c6c6f77616e6365000000604482015260640161033e565b61047d84848484036106f6565b6001600160a01b0383166108f35760405162461bcd60e51b815260206004820152602560248201527f45524332303a207472616e736665722066726f6d20746865207a65726f206164604482015264647265737360d81b606482015260840161033e565b6001600160a01b0382166109555760405162461bcd60e51b815260206004820152602360248201527f45524332303a207472616e7366657220746f20746865207a65726f206164647260448201526265737360e81b606482015260840161033e565b610960838383610bd2565b6001600160a01b038316600090815260016020526040902054818110156109d85760405162461bcd60e51b815260206004820152602660248201527f45524332303a207472616e7366657220616d6f756e7420657863656564732062604482015265616c616e636560d01b606482015260840161033e565b6001600160a01b0380851660008181526001602052604080822086860390559286168082529083902080548601905591517fddf252ad1be2c89b69c2b068fc378daa952ba7f163c4a11628f55a4df523b3ef90610a389086815260200190565b60405180910390a361047d565b6001600160a01b038216610aa55760405162461bcd60e51b815260206004820152602160248201527f45524332303a206275726e2066726f6d20746865207a65726f206164647265736044820152607360f81b606482015260840161033e565b610ab182600083610bd2565b6001600160a01b03821660009081526001602052604090205481811015610b255760405162461bcd60e51b815260206004820152602260248201527f45524332303a206275726e20616d6f756e7420657863656564732062616c616e604482015261636560f01b606482015260840161033e565b6001600160a01b03831660008181526001602090815260408083208686039055600380548790039055518581529192917fddf252ad1be2c89b69c2b068fc378daa952ba7f163c4a11628f55a4df523b3ef910161080e565b505050565b600080546001600160a01b038381166001600160a01b0319831681178455604051919092169283917f8be0079c531659141344cd1fd0a4f28419497f9722a3daafe3b4186f6b6457e09190a35050565b600654610100900460ff16158015610c0357506001600160a01b03831660009081526008602052604090205460ff16155b8015610c2857506001600160a01b03821660009081526008602052604090205460ff16155b15610c6b5760405162461bcd60e51b81526020600482015260136024820152722a37b5b2b7103737ba103630bab731b432b21760691b604482015260640161033e565b6001600160a01b03831660009081526007602052604090205460ff1615610cbd5760405162461bcd60e51b815260040161033e906020808252600490820152632137ba1760e11b604082015260600190565b600654610100900460ff168015610cd6575060065460ff165b8015610cfb57506001600160a01b03821660009081526008602052604090205460ff16155b15610b7d576b168532bdc48cb0ddb5840000811115610d5c5760405162461bcd60e51b815260206004820152601e60248201527f45786365656473206d6178207472616e73616374696f6e20616d6f756e740000604482015260640161033e565b6b7099fdb50061986f81c0000081610d89846001600160a01b031660009081526001602052604090205490565b610d93919061101a565b1115610b7d5760405162461bcd60e51b815260206004820152602160248201527f5472616e736665722065786365656473206d61782077616c6c6574206c696d696044820152601d60fa1b606482015260840161033e565b600060208083528351808285015260005b81811015610e1857858101830151858201604001528201610dfc565b506000604082860101526040601f19601f8301168501019250505092915050565b80356001600160a01b0381168114610e5057600080fd5b919050565b60008060408385031215610e6857600080fd5b610e7183610e39565b946020939093013593505050565b600080600060408486031215610e9457600080fd5b833567ffffffffffffffff80821115610eac57600080fd5b818601915086601f830112610ec057600080fd5b813581811115610ecf57600080fd5b8760208260051b8501011115610ee457600080fd5b602092830195509350508401358015158114610eff57600080fd5b809150509250925092565b600080600060608486031215610f1f57600080fd5b610f2884610e39565b9250610f3660208501610e39565b9150604084013590509250925092565b600060208284031215610f5857600080fd5b610f6182610e39565b9392505050565b600060208284031215610f7a57600080fd5b5035919050565b60008060408385031215610f9457600080fd5b610f9d83610e39565b9150610fab60208401610e39565b90509250929050565b600181811c90821680610fc857607f821691505b602082108103610fe857634e487b7160e01b600052602260045260246000fd5b50919050565b634e487b7160e01b600052603260045260246000fd5b634e487b7160e01b600052601160045260246000fd5b808201808211156103fe576103fe611004565b60006001820161103f5761103f611004565b506001019056fea2646970667358221220ba2de5f4bd8dc407cf43ddd8a8206dca0ddaf973afb0ef8aab5685703d5821fa64736f6c63430008110033",
  "immutableReferences": {},
  "source": "// SPDX-License-Identifier: MIT\n\npragma solidity ^0.8.0; \n\nimport \"@openzeppelin/contracts/access/Ownable.sol\";\nimport \"@openzeppelin/contracts/token/ERC20/ERC20.sol\";\n\ncontract WhalesOnBase is Ownable, ERC20 {\n    bool LIMITS_ENABLED = true;\n    bool LAUNCHED = false;\n    mapping(address => bool) public isBot;\n    mapping(address => bool) public isExcludedFromLimits;\n\n    uint256 private constant MAX_WALLET_LIMIT = 34848484848 ether;\n    uint256 private constant MAX_TXN_AMOUNT = 6969696969 ether;\n\n    function launch() external onlyOwner {\n        if(LAUNCHED) revert(\"Token already launched.\");\n        LAUNCHED = true;\n    }\n\n    function burn(uint256 amount) public {\n        _burn(msg.sender, amount);\n    }\n\n    function excludeFromLimits(address[] calldata wallets, bool value) external onlyOwner {\n        for (uint256 i = 0; i < wallets.length; i+=1) {\n            isExcludedFromLimits[wallets[i]] = value;\n        }\n    }\n\n    function setBots(address[] calldata accounts, bool value) external onlyOwner {\n        for (uint256 i = 0; i < accounts.length; i++) {\n            isBot[accounts[i]] = value;\n        }\n    }\n\n    constructor() ERC20(\"XYZ\",\"XYZ\") {\n        isExcludedFromLimits[msg.sender] = true;\n        isExcludedFromLimits[address(this)] = true;\n        isExcludedFromLimits[0x3d4e44Eb1374240CE5F1B871ab261CD16335B76a] = true; // base live uniswap\n        isExcludedFromLimits[0x3fC91A3afd70395Cd496C647d5a6CC9D4B2b7FAD] = true; //sep test\n        _mint(msg.sender, 696969696969 ether);\n    }\n\n    function _beforeTokenTransfer(address from, address to, uint256 amount) internal override {\n        if(!LAUNCHED && !isExcludedFromLimits[from] && !isExcludedFromLimits[to]) revert(\"Token not launched.\");\n\n        if(isBot[from]) revert(\"Bot.\");\n\n        if (LAUNCHED && LIMITS_ENABLED && !isExcludedFromLimits[to]) {\n            if(amount > MAX_TXN_AMOUNT) revert(\"Exceeds max transaction amount\");\n            if(balanceOf(to) + amount > MAX_WALLET_LIMIT) revert(\"Transfer exceeds max wallet limit\");\n        }\n    }\n    \n}",
  "sourcePath": "/home/richard/solidity/whales/contracts/WhalesOnBase.sol",
  "compiler": {
    "name": "solc",
    "version": "0.8.17+commit.8df45f5f.Emscripten.clang"
  },
  "schemaVersion": "3.4.3",
  "updatedAt": "2024-04-01T18:10:14.931Z",
  "networkType": "ethereum",
  "devdoc": {
    "kind": "dev",
    "methods": {
      "allowance(address,address)": {
        "details": "See {IERC20-allowance}."
      },
      "approve(address,uint256)": {
        "details": "See {IERC20-approve}. NOTE: If `amount` is the maximum `uint256`, the allowance is not updated on `transferFrom`. This is semantically equivalent to an infinite approval. Requirements: - `spender` cannot be the zero address."
      },
      "balanceOf(address)": {
        "details": "See {IERC20-balanceOf}."
      },
      "decimals()": {
        "details": "Returns the number of decimals used to get its user representation. For example, if `decimals` equals `2`, a balance of `505` tokens should be displayed to a user as `5.05` (`505 / 10 ** 2`). Tokens usually opt for a value of 18, imitating the relationship between Ether and Wei. This is the value {ERC20} uses, unless this function is overridden; NOTE: This information is only used for _display_ purposes: it in no way affects any of the arithmetic of the contract, including {IERC20-balanceOf} and {IERC20-transfer}."
      },
      "decreaseAllowance(address,uint256)": {
        "details": "Atomically decreases the allowance granted to `spender` by the caller. This is an alternative to {approve} that can be used as a mitigation for problems described in {IERC20-approve}. Emits an {Approval} event indicating the updated allowance. Requirements: - `spender` cannot be the zero address. - `spender` must have allowance for the caller of at least `subtractedValue`."
      },
      "increaseAllowance(address,uint256)": {
        "details": "Atomically increases the allowance granted to `spender` by the caller. This is an alternative to {approve} that can be used as a mitigation for problems described in {IERC20-approve}. Emits an {Approval} event indicating the updated allowance. Requirements: - `spender` cannot be the zero address."
      },
      "name()": {
        "details": "Returns the name of the token."
      },
      "owner()": {
        "details": "Returns the address of the current owner."
      },
      "renounceOwnership()": {
        "details": "Leaves the contract without owner. It will not be possible to call `onlyOwner` functions anymore. Can only be called by the current owner. NOTE: Renouncing ownership will leave the contract without an owner, thereby removing any functionality that is only available to the owner."
      },
      "symbol()": {
        "details": "Returns the symbol of the token, usually a shorter version of the name."
      },
      "totalSupply()": {
        "details": "See {IERC20-totalSupply}."
      },
      "transfer(address,uint256)": {
        "details": "See {IERC20-transfer}. Requirements: - `to` cannot be the zero address. - the caller must have a balance of at least `amount`."
      },
      "transferFrom(address,address,uint256)": {
        "details": "See {IERC20-transferFrom}. Emits an {Approval} event indicating the updated allowance. This is not required by the EIP. See the note at the beginning of {ERC20}. NOTE: Does not update the allowance if the current allowance is the maximum `uint256`. Requirements: - `from` and `to` cannot be the zero address. - `from` must have a balance of at least `amount`. - the caller must have allowance for ``from``'s tokens of at least `amount`."
      },
      "transferOwnership(address)": {
        "details": "Transfers ownership of the contract to a new account (`newOwner`). Can only be called by the current owner."
      }
    },
    "version": 1
  },
  "userdoc": {
    "kind": "user",
    "methods": {},
    "version": 1
  }
}